:020000040800F2
:1000000000040020450100088F0800088708000848
:100010008B0800088D0100081D0B0008000000007F
:10002000000000000000000000000000650900085A
:10003000090700080000000021090008510A000813
:100040005F0100085F0100085F0100085F01000810
:100050005F0100085F0100085F0100085F01000800
:100060005F0100085F0100085F0100085F010008F0
:100070005F0100085F0100085F0100085F010008E0
:100080005F0100085F0100085F0100085F010008D0
:10009000B50A00085F0100085F0100085F01000861
:1000A0005F0100085F0100085F0100085F010008B0
:1000B0005F0100085F0100085F0100085F010008A0
:1000C0005F0100085F0100085F0100085F01000890
:1000D0005F0100085F0100085F0100085F01000880
:1000E0005F0100085F0100085F0100085F01000870
:1000F0005F0100085F0100085F0100085F01000860
:100100005F0100085F0100085F0100085F0100084F
:100110005F0100085F0100085F0100085F0100083F
:100120005F0100085F0100085F0100085F0100082F
:10013000DFF80CD000F018F800480047410B000829
:10014000000400200648804706480047FEE7FEE717
:10015000FEE7FEE7FEE7FEE7FEE7FEE7FEE7FEE777
:10016000550A000831010008064C074D06E0E0681A
:1001700040F0010394E8070098471034AC42F6D3EE
:10018000FFF7DAFFB80B0008C80B000800BFFEE756
:1001900000B587B00121480600F0C4FB04A800F0B8
:1001A00010FA00208DF816008DF817008DF8180051
:1001B0008DF819008DF81A008DF81B008DF81200CB
:1001C0008DF8130008208DF8140007208DF8150015
:1001D0000220ADF8100004A9144800F0C2F8012074
:1001E0008DF80A0000208DF80B0001208DF80C001E
:1001F0000020ADF80000ADF80200ADF80400ADF845
:100200000600ADF8080001208DF80D00684600F0EA
:100210001BF801220221054800F09AF8012211463C
:10022000024800F095F807B000BD000000640040EF
:1002300021B9C26842F02002C26003E0026942F0C4
:10024000200202617047000010B50021837A01226C
:1002500002FA03F13D4A126842F001023B4B1A6078
:100260003A4A1C3212688A43384B1C331A60027BAC
:10027000CAB9364A0C3212688A43344B0C331A60BE
:100280004288C38842EA0343304A4032847A42F8C3
:1002900034300288838842EA03432C4A4032847A0D
:1002A00002EBC4025360027B012A19D1274A0C32A7
:1002B00012680A43254B0C331A604288038842EACD
:1002C0000343224A4032847A42F83430C288838819
:1002D00042EA03431D4A4032847A02EBC40253606F
:1002E000C27A3AB9194A121D12688A43174B1B1D6C
:1002F0001A6006E0154A121D12680A43134B1B1DB3
:100300001A60028932B9114A143212688A430F4BBB
:1003100014331A600289012A06D10C4A1432126879
:100320000A430A4B14331A60427B012A06D1074A5A
:100330001C3212680A43054B1C331A60034A1268C8
:1003400022F00102014B1A6010BD0000006600405F
:100350001AB143690B43436102E043698B43436134
:10036000704730B5024600200023146824F00204D0
:100370001460146844F00104146000E05B1C5468CD
:1003800004F001041CB94FF6FF74A342F6D154687F
:1003900004F001040CB900206CE08C79012C04D12C
:1003A000146844F08004146003E0146824F08004AE
:1003B0001460CC79012C04D1146844F0400414601A
:1003C00003E0146824F0400414600C7A012C04D17A
:1003D000146844F02004146003E0146824F020043E
:1003E00014604C7A012C04D1146844F01004146099
:1003F00003E0146824F0100414608C7A012C04D1FA
:10040000146844F00804146003E0146824F008043D
:100410001460CC7A012C04D1146844F004041460F4
:1004200003E0146824F0040414608C78A407CD78E9
:1004300044EA05640D7944EA05444D7944EA0554DB
:100440000D886D1E2C43D461146824F001041460DF
:10045000002300E05B1C546804F001041CB14FF65B
:10046000FF74A342F6D1546804F001040CB10020DB
:1004700000E0012030BD000000B585B000200090F4
:1004800041F23420019004208DF8080000208DF8FE
:10049000090008208DF80A0001208DF80B000121C9
:1004A0008DF80C1004218DF80D1005218DF80E101B
:1004B00001218DF80F1004218DF8101001218DF805
:1004C000111009218DF812106946024800F089F8D0
:1004D00005B000BD0064004030B505460C4613462B
:1004E00005F5D87000EB0410006800F004001872E5
:1004F000187A50B905F5D87000EB0410006840F286
:10050000FF7101EA5050186009E005F5D87000EB62
:10051000041000686FF0604101EAD000586005F5F2
:10052000D87000EB0410006800F00200587205F566
:10053000D87000EB0410406800F00F00987205F5C9
:10054000D87000EB04104068000AD87405F5D87024
:1005500000EB04108068D87205F5D87000EB041029
:100560008068010A197305F5D87000EB04108068E3
:10057000010C597305F5D87000EB04108068000E6B
:10058000987305F5D87000EB0410C068D87305F5B2
:10059000D87000EB0410C068010A197405F5D87012
:1005A00000EB0410C068010C597405F5D87000EB1D
:1005B0000410C068000E987421462846FFF738FEE4
:1005C00030BD00218171C171017241728172C172AD
:1005D0008170C170032101710221417101210180EB
:1005E000704710B502460020936803F08063B3F1B2
:1005F000806F00D110E0936803F00063B3F1006FE7
:1006000001D1012008E0936803F08053B3F1805FCB
:1006100001D1022000E00420042874D002F5C07348
:1006200003EB00131B6803F0010402F5C07303EB36
:1006300000131C600B7A7BB94B7A0C8843EA445355
:1006400002F5C07404EB00142468234302F5C0745F
:1006500004EB0014236010E00B7A4C6843EAC403F7
:100660004C7A234302F5C07404EB0014246823433E
:1006700002F5C07404EB001423608B7A03F00F03BF
:100680008B7202F5C07303EB00135B6823F00F0459
:1006900002F5C07303EB00135C6002F5C07303EB5B
:1006A00000135B688C7A234302F5C07404EB0014DA
:1006B00063608B7B1C064B7B44EA03440B7B44EA60
:1006C0000323CC7A234302F5C07404EB0014A36027
:1006D0008B7C1C064B7C44EA03440B7C44EA0323DA
:1006E000CC7B234302F5C07404EB0014E36002F5F5
:1006F000C07303EB00131B6843F0010402F5C073E1
:1007000003EB00131C6010BD7047000008B5012109
:10071000082000F017F90121042000F013F9C0208F
:10072000ADF8000010208DF8030001208DF80200C4
:1007300069460B4800F018F84021094800F0A1F87C
:100740008021074800F09DF84FF4C050ADF800003C
:1007500018208DF803006946024800F005F808BD2E
:10076000000C0140000801402DE9F041024600253F
:100770000026002000230024002791F803C00CF07D
:100780000F0591F803C00CF0100CBCF1000F03D062
:1007900091F802C04CEA050591F800C0BCF1000FC9
:1007A00031D0146800202BE04FF0010C0CFA00F35C
:1007B000B1F800C00CEA03069E4220D183004FF03E
:1007C0000F0C0CFA03F7BC4305FA03FC4CEA0404D3
:1007D00091F803C0BCF1280F06D14FF0010C0CFAC0
:1007E00000FCC2F814C00AE091F803C0BCF1480F45
:1007F00005D14FF0010C0CFA00FCC2F810C0401CEF
:100800000828D1D31460B1F800C0BCF1FF0F34DD6B
:10081000546800202EE000F1080C4FF0010808FA9F
:100820000CF3B1F800C00CEA03069E4221D183000C
:100830004FF00F0C0CFA03F7BC4305FA03FC4CEA2B
:10084000040491F803C0BCF1280F05D100F1080C95
:1008500008FA0CF8C2F8148091F803C0BCF1480FF4
:1008600007D100F1080C4FF0010808FA0CF8C2F8A3
:100870001080401C0828CED35460BDE8F08141614F
:1008800070470161704700BFFEE700BFFEE7704799
:1008900008B514208DF8000000208DF801008DF8B7
:1008A000020001208DF80300684600F001F808BD41
:1008B00070B5002100230F22C47804B3154C2468BE
:1008C00004F4E064C4F5E064210AC1F10403CA4001
:1008D000447804FA03F184781440214309010E4C52
:1008E0000678A155047804F01F050124AC40057872
:1008F0006D11AD0005F1E025C5F8004109E004786F
:1009000004F01F050124AC40044D0678761145F82B
:10091000264070BD0CED00E000E400E080E100E066
:100920007047000029B1064AD2690243044BDA61DC
:1009300004E0034AD2698243014BDA617047000048
:100940000010024029B1064A92690243044B9A61A1
:1009500004E0034A92698243014B9A6170470000A8
:1009600000100240704710B500F002F810BD000002
:100970000CB50020019000903348006840F48030AE
:100980003149086000BF3048006800F40030009032
:100990000198401C0190009818B90198B0F5A06F1B
:1009A000F1D12948006800F4003010B10120009016
:1009B00001E0002000900098012843D123480068FE
:1009C00040F01000214908600846006820F003004C
:1009D00008600846006840F0020008601A48406855
:1009E000194948600846406848600846406840F435
:1009F000806048600846406820F47C1048600846E3
:100A0000406840F4E81048600846006840F0807094
:100A1000086000BF0C48006800F000700028F9D0A2
:100A20000948406820F003000749486008464068CC
:100A300040F00200486000BF0348406800F00C002E
:100A40000828F9D10CBD000000100240002002402F
:100A50007047000010B51348006840F001001149CC
:100A6000086008464068104908400E49486008463A
:100A700000680E4908400B4908600846006820F4E9
:100A8000802008600846406820F4FE0048604FF46B
:100A90001F008860FFF767FF4FF00060044908609F
:100AA00010BD0000001002400000FFF8FFFFF6FE3E
:100AB00008ED00E000B585B00020009001908DF8B1
:100AC00008008DF80A008DF813006A4600211148CD
:100AD000FFF702FD41F234210198884210D19DF8C0
:100AE000080004280CD19DF80A00082808D14021EC
:100AF0000948FFF7C4FE80210748FFF7C2FE07E060
:100B000040210548FFF7BDFE80210348FFF7B7FEEF
:100B100005B000BD00640040000C014000BFFEE7CE
:100B200002E008C8121F08C1002AFAD170477047B6
:100B3000002001E001C1121F002AFBD17047000014
:100B400086B0FFF7E3FDFFF7A3FEFFF721FBFFF7FA
:100B500093FC0020019002908DF80C008DF80E009F
:100B60008DF8170022E001AA00211148FFF7B4FC1C
:100B700041F234210298884210D19DF80C000428DB
:100B80000CD19DF80E00082808D140210948FFF734
:100B900076FE80210748FFF774FE07E040210548F4
:100BA000FFF76FFE80210348FFF769FEDBE70000D7
:100BB00000640040000C0140C80B00080000002049
:080BC00000040000300B0008E6
:0400000508000131BD
:00000001FF
