:020000040800F2
:10000000A004002001010008B30400085504000802
:10001000AF04000839030008E114000800000000E4
:10002000000000000000000000000000410900087E
:100030003D03000800000000390500081901000810
:100040001B0100081B0100081B0100081B01000820
:100050001B0100081B0100081B0100081B01000810
:100060001B0100081B0100081B0100081B01000800
:100070001B0100081B0100081B0100081B010008F0
:100080001B0100081B0100081B0100081B010008E0
:100090001B0100081B0100081B0100081B010008D0
:1000A0001B0100081B0100081B0100081B010008C0
:1000B000850E00081B010008511000081B010008F4
:1000C0001B0100081B0100081B0100081B010008A0
:1000D0001B0100081B0100081B0100081B01000890
:1000E0001B0100081B0100081B010008DFF80CD0F1
:1000F00000F010F90048004705150008A004002092
:100100000648804706480047FEE7FEE7FEE7FEE7B1
:10011000FEE7FEE7FEE7FEE7FEE7FEE72D0A000842
:10012000ED000008F0B480EA0102D40F4200B2EB07
:10013000410F02D20246084611464A0042D0C30D82
:10014000DDB2C1F3C752AD1A202D35DAC1F3160165
:1001500041F4000204B15242C5F1200602FA06F150
:100160002A411044B3EBD05F23D0C4B1012DA0EBE2
:10017000C35009DCF0BC4FF0004202EAC352DBB2CC
:1001800000F5000000F097B8400000F1807000EB2F
:10019000C350A0F1807040EAD170490009E04908DD
:1001A00041EAC071A0EBC35000F50000400800EB2D
:1001B000C350F0BC00F076B86142012202EB41016D
:1001C000001BF6E7F0BC704781F00041AAE780F021
:1001D0000040A7E780EA010210B502F000434000AA
:1001E00022D04A001FD0010E01EB1261C0F356006D
:1001F000C2F3560240F4000042F40002A0FB0220C9
:1002000000047F39140400D0401C50EA124001D48D
:100210004000491EC2B20C0604EBD010401C40083E
:10022000802A02D003E0002010BD20F00100002948
:1002300000DA0020184310BDC10F80EAE0700844C6
:10024000CA079623002100F036B800F0004220F0E3
:100250000040C10DC0F3160040F400007F2901DA10
:1002600000207047962903DCC1F19601C84001E0E7
:1002700096398840002AF4D040427047002801DBBC
:10028000C0F10040002901DBC1F10041814270470B
:10029000002801DBC0F10040002901DBC1F1004171
:1002A000884270470029A8BF7047401C490008BF1A
:1002B00020F00100704710B4B0FA80FC00FA0CF096
:1002C00050EA010404BF10BC704749B1CCF12004CE
:1002D00021FA04F411FA0CF118BF0121214308435B
:1002E000A3EB0C01CB1D4FEA00614FEA102042BF87
:1002F000002010BC704700EBC35010440029A4BF7D
:1003000010BC7047401C490008BF20F0010010BC21
:1003100070470000064C074D06E0E06840F001031E
:1003200094E8070098471034AC42F6D3FFF7E2FE9A
:10033000381500085815000800BFFEE770472DE982
:10034000F04102460025002600200023002400275B
:1003500091F803C00CF00F0591F803C00CF0100CDD
:10036000BCF1000F03D091F802C04CEA050591F8EA
:1003700000C0BCF1000F31D0146800202BE04FF01A
:10038000010C0CFA00F3B1F800C00CEA03069E421F
:1003900020D183004FF00F0C0CFA03F7BC4305FA91
:1003A00003FC4CEA040491F803C0BCF1280F06D109
:1003B0004FF0010C0CFA00FCC2F814C00AE091F8EE
:1003C00003C0BCF1480F05D14FF0010C0CFA00FC42
:1003D000C2F810C0401C0828D1D31460B1F800C086
:1003E000BCF1FF0F34DD546800202EE000F1080C52
:1003F0004FF0010808FA0CF3B1F800C00CEA03064C
:100400009E4221D183004FF00F0C0CFA03F7BC433E
:1004100005FA03FC4CEA040491F803C0BCF1280F70
:1004200005D100F1080C08FA0CF8C2F8148091F814
:1004300003C0BCF1480F07D100F1080C4FF00108D0
:1004400008FA0CF8C2F81080401C0828CED354607B
:10045000BDE8F08100BFFEE710B500F08BFC10BDD9
:1004600010B50446002C06DBB4F57A7F03DCA0B29D
:1004700000F02CFC1AE0002C07DA14F57A7F04DB7C
:10048000614288B200F04CFC10E0B4F57A7F05DDE3
:100490004FF47A74204600F019FC07E014F57A7FD7
:1004A00004DA4FF47A74204600F03AFC10BD00BF25
:1004B000FEE7704770B5002100230F22C47804B313
:1004C000154C246804F4E064C4F5E064210AC1F129
:1004D0000403CA40447804FA03F1847814402143A9
:1004E00009010E4C0678A155047804F01F0501247B
:1004F000AC4005786D11AD0005F1E025C5F800416F
:1005000009E0047804F01F050124AC40044D06788E
:10051000761145F8264070BD0CED00E000E400E0E7
:1005200080E100E002490143024A11607047000087
:100530000000FA050CED00E0704700002DE9F047DF
:100540000446E6484460024611685068FFF73CFEE6
:10055000E24988608868FFF778FEE1490860DF4873
:10056000006C80F00045DD4881682846FFF786FE74
:100570000FD2DA4A116C9068FFF780FE09D20A2088
:10058000D84908604FF07E50D449086288624862BA
:1005900011E1D248406C80F00045D048816828467F
:1005A000FFF76CFE53D2CD4A516C9068FFF766FEA0
:1005B0004DD2CA4A916B1069FFF76AFE09D3C7484A
:1005C000806B80F00045C54801692846FFF760FE52
:1005D00023D2C24A11699068FFF7FCFD054600214D
:1005E000FFF756FE0CD80A20BE490860BE48BB493A
:1005F00008624FF07C5088624FF07E504862DAE02B
:100600001420B8490860B848B44908624FF07E50D9
:1006100088624FF07C504862CDE0B0498868002184
:10062000FFF736FE09D81E20AE4908604FF07E5015
:10063000AA49086288624862BDE02820A94908608A
:100640004FF07E50A549086288624862B3E0A34833
:10065000806C80F00045A14881682846FFF70EFEB7
:100660002DD29E4A916C9068FFF708FE27D29B4AD4
:10067000916B1069FFF70CFE09D39848806B80F0EE
:100680000045964801692846FFF702FE0AD2282055
:100690009449086095489149086288624FF07E50FD
:1006A000486288E032208F490860914880688B4911
:1006B00008624FF07E5088628E4848627BE087482F
:1006C000C06C80F00045854881682846FFF7D6FD5C
:1006D0002FD2824AD16C9068FFF7D0FD29D27F4A91
:1006E000916B1069FFF7D4FD09D37C48806B80F0D3
:1006F00000457A4801692846FFF7CAFD0BD23C2025
:1007000078490860002075490862784888624FF08F
:100710007E5048624FE04620724908607448C068C5
:100720006E4908624FF07E508862C8637148486223
:1007300041E06A48006D80F00045684881682846BD
:10074000FFF79CFD2CD2654A116D9068FFF796FD6E
:1007500026D2624A916B1069FFF79AFD09D35F4870
:10076000806B80F000455D4801692846FFF790FDE9
:100770000AD250205B4908605C4858490862886288
:100780004FF07E50486216E05A20564908604FF0FC
:100790007E50524908628862C863564848620AE03F
:1007A000AA205049086000204C4908624FF07E5052
:1007B000886251484862494A516BD06BFFF70AFD85
:1007C00005464648C16A2846FFF762FD17D24348EE
:1007D000C06B80F000464148416B3046FFF7FAFCA1
:1007E00005463E48C16A2846FFF748FD07D23B4A06
:1007F0009168D06AFFF796FC3849C86236E0374AFC
:10080000516BD06BFFF7E6FC05463448C16A2846B9
:10081000FFF734FD0DD2314988680021FFF72EFD26
:1008200007D22E4A9168D06AFFF77CFC2B49C86238
:100830001CE02A48C06B80F000462848416B3046D7
:10084000FFF7C8FC05462548C16A2846FFF720FD8A
:100850000CD2224988680021FFF71AFD06D21F4AF0
:100860009168D06AFFF75EFC1C49C8621B49C86AE0
:10087000FFF7EBFC21490860184A916AD069FFF73D
:10088000A9FC0746154801693846FFF7A3FC054651
:10089000124A116A9069FFF79DFC81460F48C16AB0
:1008A0004846FFF797FC07460C4A516A5069FFF724
:1008B00091FC8146094881684846FFF78BFC8046D9
:1008C0003946FFF72FFC06462946FFF72BFC034964
:1008D00008630846006BBDE8F08700002C0000208C
:1008E0008000002088000020CDCC4C3F9A99193F11
:1008F0008C0000209A99993FCDCC8C3F8400002039
:1009000029B1064AD2690243044BDA6104E0034A82
:10091000D2698243014BDA61704700000010024047
:1009200029B1064A92690243044B9A6104E0034AE2
:1009300092698243014B9A617047000000100240A7
:10094000704710B500F002F810BD00000CB5002093
:10095000019000903348006840F4803031490860CD
:1009600000BF3048006800F4003000900198401C3F
:100970000190009818B90198B0F5A06FF1D12948FD
:10098000006800F4003010B10120009001E0002068
:1009900000900098012843D12348006840F01000DF
:1009A000214908600846006820F0030008600846F6
:1009B000006840F0020008601A4840681949486021
:1009C0000846406848600846406840F480604860D7
:1009D0000846406820F47C1048600846406840F4AF
:1009E000E81048600846006840F08070086000BF6A
:1009F0000C48006800F000700028F9D009484068F1
:100A000020F00300074948600846406840F00200B3
:100A1000486000BF0348406800F00C000828F9D186
:100A20000CBD0000001002400020024010B5134829
:100A3000006840F00100114908600846406810490C
:100A400008400E494860084600680E4908400B49B6
:100A500008600846006820F4802008600846406866
:100A600020F4FE0048604FF41F008860FFF769FF24
:100A70004FF000600449086010BD00000010024003
:100A80000000FFF8FFFFF6FE08ED00E0F0B50C46B1
:100A9000154600220021068C4FF6FE773E40068464
:100AA000028B018C4FF60C7632407E1C06EA031650
:100AB0002E433243104EB0420ED0104EB0420BD0F7
:100AC000B0F1804F08D00E4EB04205D00D4EB0426E
:100AD00002D00D4EB04206D14FF6FD76314044F0C3
:100AE0000106314305E04FF6F576314044F001064A
:100AF000314302830184F0BD002C014000340140E9
:100B00000004004000080040000C0040F0B50C4616
:100B10001546002200210026078C4FF6EF7C07EADD
:100B20000C070784028B018C4FF6FF7707EA041647
:100B300040F6FF473A404FF6FF7707EA03373A435C
:100B40004FF6FF7707EA05273A43114FB8420ED018
:100B5000104FB8420BD0B0F1804F08D00E4FB842C2
:100B600005D00E4FB84202D00D4FB84206D14FF615
:100B7000DF77394046F01007394305E04FF65F77DD
:100B8000394044F01007394302830184F0BD00006E
:100B9000002C0140003401400004004000080040E7
:100BA000000C0040F0B50C4615460022002100263E
:100BB000078C4FF6FF6C07EA0C070784828B018CC9
:100BC0004FF6FF7707EA04264FF60C773A404FF6C8
:100BD000FF7707EA03172F433A43114FB8420ED06D
:100BE000104FB8420BD0B0F1804F08D00E4FB84232
:100BF00005D00E4FB84202D00D4FB84206D14FF685
:100C0000FF57394046F48077394305E04FF2FF57EC
:100C1000394044F48077394382830184F0BD000079
:100C2000002C014000340140000400400008004056
:100C3000000C0040F0B50C461546002200210026AD
:100C4000078C4EF6FF7C07EA0C070784828B018C29
:100C50004FF6FF7707EA043640F6FF473A404FF673
:100C6000FF7707EA05273A434FF6FF7707EA03378E
:100C70003A43114FB8420ED0104FB8420BD0B0F1EA
:100C8000804F08D00E4FB84205D00E4FB84202D068
:100C90000D4FB84206D14DF6FF77394046F48057E4
:100CA000394305E047F6FF57394044F4805739434C
:100CB00082830184F0BD0000002C0140003401401B
:100CC0000004004000080040000C00401FB504462E
:100CD0004FF48070ADF80C006020ADF800000220E9
:100CE000ADF808000020ADF804000120ADF80200C6
:100CF000ADF806406946094800F0BCFA0020ADF89E
:100D000002006946054800F00BFB0021034800F093
:100D100059FB0821014800F0F9FA1FBD002C0140E1
:100D20001FB504464FF48070ADF80C006020ADF89C
:100D300000000220ADF808000020ADF804000120FA
:100D4000ADF80200ADF806406946094800F0E8FA3F
:100D50000020ADF802006946054800F08BFA082132
:100D6000034800F02FFB0021014800F0CFFA1FBD1F
:100D7000002C014000B58DB001210420FFF7D0FD0B
:100D80000121C802FFF7CCFD18208DF833004FF485
:100D90008070ADF8300003208DF832000CA9374880
:100DA000FFF7CDFA18208DF833004FF40070ADF83E
:100DB000300003208DF832000CA93048FFF7BFFA4D
:100DC0000020ADF82A00ADF826004FF47A70ADF897
:100DD00028000020ADF824008DF82C0009A928482F
:100DE00000F02CFB4FF48070ADF820006020ADF8CF
:100DF00014000220ADF81C000020ADF818000120FE
:100E0000ADF816000020ADF81A0005A91C4800F046
:100E100087FA0020ADF8160005A9194800F02AFA53
:100E20000821174800F072FA0821154800F0CAFAA4
:100E30004FF48040ADF810000020ADF80C004FF4E6
:100E40000050ADF80E000020ADF80A004FF480709D
:100E5000ADF808008000ADF806004000ADF80400D1
:100E600001A9074800F03AF90121054800F049F9C5
:100E70000121034800F051F90DB000BD0008014008
:100E8000002C014070B50121880700F079F978B392
:100E900018480068401C17490860084600681E286A
:100EA00012D1154AD1689068FFF78EF9124908618E
:100EB0000869FFF7CAF9114908600F4880680E49B0
:100EC000C86000200B4908600D480068FFF7B4F9BE
:100ED0000546FFF733FB0446FFF7B7F909490860F9
:100EE00008460068FFF7BCFA0121880700F006F900
:100EF00070BD0000280000202C00002020000020F1
:100F000010000020240000201FB501210846FFF733
:100F1000F7FC0020ADF80A00ADF8060040F2E7301B
:100F2000ADF808004720ADF8040001A94FF080405B
:100F300000F084FA1C208DF8000001208DF80300D9
:100F40008DF801008DF802006846FFF7B3FA012220
:100F50001146900700F085F90121880700F0D1F8CB
:100F60001FBD000000B587B001210420FFF7D8FCA9
:100F700001210220FFF7C4FC48208DF81B00C0208F
:100F8000ADF8180003208DF81A0006A91648FFF7DF
:100F9000D6F90020ADF81200ADF80E004FF6FF7044
:100FA000ADF810000020ADF80C0003A90F4800F0C8
:100FB00045FA0A231A4603210C4800F0BDF868469A
:100FC00000F046F90620ADF808006946074800F031
:100FD000E9F80021054800F002FA0121034800F079
:100FE00090F807B000BD0000000801400004004078
:100FF0001FB501210420FFF783FC0020ADF80A0093
:10100000ADF8060042F20F70ADF808004720ADF8C9
:10101000040001A90D4800F011FA1E208DF800000F
:1010200001208DF8030002208DF801008DF80200E8
:101030006846FFF73FFA01221146044800F011F913
:101040000121024800F05DF81FBD000000080040CB
:1010500010B501211A4800F093F880B3194800F048
:101060008CF8194908600846006818490968401A50
:10107000174908601448006814490860144800685B
:101080001449884206DA12480068090C08441049DD
:1010900008600CE00E48006844F62061884206DDD6
:1010A0000B480068A0F57F40FF38094908600848F0
:1010B0000068094908600121014800F01FF810BDCF
:1010C00000080040000400401C0000201800002020
:1010D00014000020E0B1FFFF100000200A884B88B8
:1010E0001A438B881A43CB881A430B891A434B89BE
:1010F0001A438B891A43A0F844207047CA430282DE
:10110000704721B1028842F00102028004E00288A7
:101110004FF6FE731A400280704731B1B0F8442098
:1011200042F40042A0F8442005E0B0F84420C2F3A5
:101130000E02A0F844207047F0B50C4615461E4636
:101140000021002200230189028B038C4FF6F877DF
:10115000394021434FF6FC473A4040F201173A43E9
:101160004FF6DD773B404FF6FF7707EA06172F4330
:101170003B43018102830384F0BD0146888C7047A4
:1011800030B50246002000230024158A05EA010339
:10119000958905EA010413B10CB1012000E000209B
:1011A00030BD000070B505460C46244885420ED07F
:1011B000234885420BD0B5F1804F08D021488542A5
:1011C00005D02148854202D02048854200D100E068
:1011D00000BF208850B92389A28861882846FFF77C
:1011E00055FCE188284600F0FCF825E0208804281A
:1011F0000AD12389A28861882846FFF787FCE18805
:10120000284600F0F7F817E0208808280AD123893B
:10121000A28861882846FFF7C5FCE188284600F0CF
:10122000F6F809E02389A28861882846FFF702FDC5
:10123000E188284600F0F4F870BD0000002C014061
:10124000003401400004004000080040000C004051
:10125000002101804180012181800021C180018124
:1012600070471AB183890B43838102E083898B43E2
:101270008381704770B5002400220023058C4FF64F
:10128000FE7635400584028C8388048B4FF68F757B
:101290002C40B51E2C400D882C43751E2A400D890C
:1012A0002A434D882A43144DA8420BD0134DA8421F
:1012B00008D0134DA84205D0124DA84202D0124DBD
:1012C000A84213D14FF6F7752A404D892A434FF6AD
:1012D000FB752A408D882A434FF6FF652B404FF659
:1012E000FF552B408D892B43CD892B43838004836D
:1012F000CD888586028470BD002C014000340140F9
:101300000040014000440140004801400A460021DD
:10131000018B4FF6F77319401143018370470000AA
:1013200070B5002400220023058C4FF6EF7635407F
:101330000584028C8388048B48F6FF752C404FF699
:10134000FF452C400D884FF6FF7606EA05252C4315
:101350004FF6DF752A400D8906EA05152A434D88A8
:1013600006EA05152A43154DA84202D0144DA8429D
:101370001DD14FF67F752A404D894FF6FF7606EA5C
:1013800005152A434FF6BF752A408D8806EA0515D4
:101390002A434FF6FF352B404FF2FF752B408D89C6
:1013A00006EA85052B43CD8906EA85052B43838014
:1013B0000483CD880587028470BD0000002C0140A5
:1013C000003401400A460021018B4FF2FF7319409F
:1013D0004FF6FF7303EA02231943018370478184A8
:1013E0007047028B4FF6F3731A400283028B0A4355
:1013F00002837047028B4FF2FF331A400283028B45
:101400004FF6FF7303EA01231A4302837047828B6E
:101410004FF6F3731A408283828B0A4382837047AC
:10142000828B4FF2FF331A408283828B4FF6FF7319
:1014300003EA01231A4382837047000000220288D6
:101440001D4B98420ED01D4B98420BD0B0F1804FEF
:1014500008D01B4B984205D01A4B984202D01A4B29
:10146000984204D14FF68F731A404B881A43174B9A
:10147000984207D0164B984204D04FF6FF431A40CB
:10148000CB881A4302808B8883850B8803850A4B9F
:1014900098420BD0094B984208D00E4B984205D089
:1014A0000D4B984202D00D4B984201D10B7A038626
:1014B0000123838270470000002C0140003401406A
:1014C0000004004000080040000C004000100040F4
:1014D0000014004000400140004401400048014029
:1014E00000BFFEE702E008C8121F08C1002AFAD1B7
:1014F00070477047002001E001C1121F002AFBD194
:101500007047000000BF4FF4A060FFF70BF8FEF734
:10151000A3FFFFF727FDFFF76BFDFFF7F5FC05E0E5
:1015200003490868FEF791FE02490860F8E70000E9
:101530002C0000200C00002058150008000000209E
:10154000A0000000E4140008F8150008A000002026
:1015500000040000F4140008650000000000000012
:10156000000000000000000000000000000000007B
:10157000000000000000000000000000000000006B
:101580000000000000007A4400000000000000009D
:1015900000000000000000009A99993F0000803F81
:1015A000CDCC4C3E0000803F0000803F0000803FDB
:1015B00000000000000000000000484300007041EF
:1015C0000000803F00002041000048420000B4427B
:1015D0000000F0420000FA4300000000000000009C
:1015E000000000000000803FCDCC4C3F0000803F59
:0815F000CDCCCC3ECDCC4C3E2D
:04000005080000ED02
:00000001FF
