:020000040800F2
:100000005804002045010008270500081F050008C6
:1000100023050008DD0300086B1300080000000042
:1000200000000000000000000000000009080008B7
:10003000E10300080000000059070008F508000867
:100040005F0100085F0100085F0100085F01000810
:100050005F0100085F0100085F0100085F01000800
:100060005F0100085F0100085F0100085F010008F0
:100070005F0100085F0100085F0100085F010008E0
:100080005F0100085F0100085F0100085F010008D0
:100090005F0100085F0100085F0100085F010008C0
:1000A0005F0100085F0100085F0100085F010008B0
:1000B000990B00085F0100083D0C00085F01000873
:1000C0005F0100085F0100085F0100085F01000890
:1000D0005F0100085F0100085F0100085F01000880
:1000E0005F0100085F0100085F0100085F01000870
:1000F0005F0100085F0100085F0100085F01000860
:100100005F0100085F0100085F0100085F0100084F
:100110005F0100085F0100085F0100085F0100083F
:100120005F0100085F0100085F0100085F0100082F
:10013000DFF80CD000F040F9004800478D130008AC
:10014000580400200648804706480047FEE7FEE7BF
:10015000FEE7FEE7FEE7FEE7FEE7FEE7FEE7FEE777
:10016000F908000831010008F0B480EA0102D40F58
:100170004200B2EB410F02D20246084611464A0045
:1001800042D0C30DDDB2C1F3C752AD1A202D35DA0E
:10019000C1F3160141F4000204B15242C5F1200638
:1001A00002FA06F12A411044B3EBD05F23D0C4B168
:1001B000012DA0EBC35009DCF0BC4FF0004202EA75
:1001C000C352DBB200F5000000F0C7B8400000F1F8
:1001D000807000EBC350A0F1807040EAD1704900FC
:1001E00009E0490841EAC071A0EBC35000F50000E6
:1001F000400800EBC350F0BC00F0A6B861420122F9
:1002000002EB4101001BF6E7F0BC704781F00041B2
:10021000AAE780F00040A7E780EA010210B502F0EB
:100220000043400022D04A001FD0010E01EB1261B2
:10023000C0F35600C2F3560240F4000042F400023C
:10024000A0FB022000047F39140400D0401C50EAB7
:10025000124001D44000491EC2B20C0604EBD0107B
:10026000401C4008802A02D003E0002010BD20F08E
:100270000100002900DA0020184310BD30B480EAE4
:10028000010202F0004530F0004221F0004013D09E
:1002900090B1C30DD40DC2F31601C0F31600E41AD9
:1002A00041F4000140F400027D34914201D3641C0A
:1002B00000E04900002C02DA30BC002070474FF407
:1002C00000000023914201D3891A034340084FEAFA
:1002D0004101F7D151B1914202D14FF0004105E007
:1002E00002D24FF0010101E06FF0010103EBC450B5
:1002F000284430BC00F028B8C10F80EAE070084400
:10030000CA079623002100F028B820F00040C10D54
:10031000C0F3160040F400007F2901DA0020704786
:10032000962903DCC1F19601C84070479639884090
:1003300070470000002801DBC0F10040002901DB0C
:10034000C1F10041884270470029A8BF7047401C96
:10035000490008BF20F00100704710B4B0FA80FCDB
:1003600000FA0CF050EA010404BF10BC704749B118
:10037000CCF1200421FA04F411FA0CF118BF012188
:1003800021430843A3EB0C01CB1D4FEA00614FEA68
:10039000102042BF002010BC704700EBC350104437
:1003A0000029A4BF10BC7047401C490008BF20F0C2
:1003B000010010BC70470000064C074D06E0E068E5
:1003C00040F0010394E8070098471034AC42F6D39C
:1003D000FFF7B2FEE81300080814000800BFFEE7AC
:1003E0007047000008B5C020ADF8000004208DF86B
:1003F000030003208DF802006946024800F004F86B
:1004000008BD0000000801402DE9F041024600252A
:100410000026002000230024002791F803C00CF0E0
:100420000F0591F803C00CF0100CBCF1000F03D0C5
:1004300091F802C04CEA050591F800C0BCF1000F2C
:1004400031D0146800202BE04FF0010C0CFA00F3BF
:10045000B1F800C00CEA03069E4220D183004FF0A1
:100460000F0C0CFA03F7BC4305FA03FC4CEA040436
:1004700091F803C0BCF1280F06D14FF0010C0CFA23
:1004800000FCC2F814C00AE091F803C0BCF1480FA8
:1004900005D14FF0010C0CFA00FCC2F810C0401C52
:1004A0000828D1D31460B1F800C0BCF1FF0F34DDCF
:1004B000546800202EE000F1080C4FF0010808FA03
:1004C0000CF3B1F800C00CEA03069E4221D1830070
:1004D0004FF00F0C0CFA03F7BC4305FA03FC4CEA8F
:1004E000040491F803C0BCF1280F05D100F1080CF9
:1004F00008FA0CF8C2F8148091F803C0BCF1480F58
:1005000007D100F1080C4FF0010808FA0CF8C2F806
:100510001080401C0828CED35460BDE8F08100BF95
:10052000FEE700BFFEE7704708B51E208DF800000B
:1005300000208DF8010001208DF802008DF80300E5
:10054000684600F01FF81D208DF8000000208DF88F
:10055000010002208DF8020001208DF8030068469A
:1005600000F010F81C208DF8000000208DF801002C
:100570008DF8020001208DF80300684600F002F8B3
:1005800008BD000070B5002100230F22C47804B319
:10059000154C246804F4E064C4F5E064210AC1F158
:1005A0000403CA40447804FA03F1847814402143D8
:1005B00009010E4C0678A155047804F01F050124AA
:1005C000AC4005786D11AD0005F1E025C5F800419E
:1005D00009E0047804F01F050124AC40044D0678BE
:1005E000761145F8264070BD0CED00E000E400E017
:1005F00080E100E002490143024A116070470000B7
:100600000000FA050CED00E02DE9F04104460E462D
:100610003146E068FFF7FAFD05462946E069FFF735
:10062000A3FDE0612846A169FFF7F0FD8046A069BF
:100630006061A5612169E069FFF77CFE02D820694D
:10064000E0610BE0206980F000473846E169FFF780
:1006500071FE03D8206980F00040E06129462068DF
:10066000FFF7DAFD2062E1696068FFF7D5FD60629F
:100670004146A068FFF7D0FDA062D4E90801FFF76A
:1006800073FD0746A16AFFF76FFDBDE8F08100002A
:10069000054901600549416000218160044901610B
:1006A0000449C1607047000014AEC73E0681953D05
:1006B00000007A440080BB4400B589B04FF440701C
:1006C000ADF8040018208DF8070003208DF806000F
:1006D00001A91F48FFF798FE06A800F03DFE002084
:1006E000ADF8180040F2CF70ADF81C0006A919480B
:1006F00000F0E0FD02A800F0A2FD6020ADF80800C7
:1007000002A9144800F0E6FC02A9124800F038FDE6
:100710000821104800F02AFD08210E4800F082FD53
:1007200001210C4800F0C8FA01220421094800F018
:10073000CFFA01220021074800F0CAFA012105483A
:1007400000F0D8FA0121034800F022FB09B000BDF7
:1007500000080140002C01407047000029B1064A02
:10076000D2690243044BDA6104E0034AD26982434E
:10077000014BDA61704700000010024029B1064ABF
:1007800012690243044B1A6104E0034A126982436E
:10079000014B1A61704700000010024029B1064A5F
:1007A00092690243044B9A6104E0034A92698243CE
:1007B000014B9A61704700000010024029B1064ABF
:1007C000D2680243044BDA6004E0034AD2688243F1
:1007D000014BDA60704700000010024010B50121A3
:1007E0000420FFF7BBFF01210220FFF7B7FF012123
:1007F000C802FFF7D3FF01210846FFF7AFFF012131
:100800000420FFF7CBFF10BD704710B500F002F8D1
:1008100010BD00000CB50020019000903348006826
:1008200040F480303149086000BF3048006800F46F
:10083000003000900198401C0190009818B9019870
:10084000B0F5A06FF1D12948006800F4003010B174
:100850000120009001E0002000900098012843D181
:100860002348006840F010002149086008460068ED
:1008700020F0030008600846006840F002000860AD
:100880001A48406819494860084640684860084668
:10089000406840F4806048600846406820F47C105E
:1008A00048600846406840F4E81048600846006820
:1008B00040F08070086000BF0C48006800F00070D5
:1008C0000028F9D00948406820F003000749486033
:1008D0000846406840F00200486000BF0348406896
:1008E00000F00C000828F9D10CBD000000100240F7
:1008F000002002407047000010B51348006840F027
:1009000001001149086008464068104908400E4936
:100910004860084600680E4908400B4908600846D0
:10092000006820F4802008600846406820F4FE003B
:1009300048604FF41F008860FFF767FF4FF00060CA
:100940000449086010BD0000001002400000FFF8DC
:10095000FFFFF6FE08ED00E0F0B50C46154600225C
:100960000021068C4FF6FE773E400684028B018CF8
:100970004FF60C7632407E1C06EA03162E433243B5
:10098000104EB0420ED0104EB0420BD0B0F1804F9E
:1009900008D00E4EB04205D00D4EB04202D00D4EE2
:1009A000B04206D14FF6FD76314044F001063143A6
:1009B00005E04FF6F576314044F0010631430283FD
:1009C0000184F0BD002C01400034014000040040CF
:1009D00000080040000C0040F0B50C46154600220F
:1009E00000210026078C4FF6EF7C07EA0C070784EE
:1009F000028B018C4FF6FF7707EA041640F6FF479B
:100A00003A404FF6FF7707EA03373A434FF6FF774E
:100A100007EA05273A43114FB8420ED0104FB842AB
:100A20000BD0B0F1804F08D00E4FB84205D00E4F1A
:100A3000B84202D00D4FB84206D14FF6DF773940A9
:100A400046F01007394305E04FF65F77394044F030
:100A50001007394302830184F0BD0000002C0140DF
:100A6000003401400004004000080040000C004039
:100A7000F0B50C461546002200210026078C4FF6E3
:100A8000FF6C07EA0C070784828B018C4FF6FF7717
:100A900007EA04264FF60C773A404FF6FF7707EA4D
:100AA00003172F433A43114FB8420ED0104FB842AC
:100AB0000BD0B0F1804F08D00E4FB84205D00E4F8A
:100AC000B84202D00D4FB84206D14FF6FF57394019
:100AD00046F48077394305E04FF2FF57394044F43C
:100AE0008077394382830184F0BD0000002C0140EF
:100AF000003401400004004000080040000C0040A9
:100B0000F0B50C461546002200210026078C4EF653
:100B1000FF7C07EA0C070784828B018C4FF6FF7776
:100B200007EA043640F6FF473A404FF6FF7707EAF8
:100B300005273A434FF6FF7707EA03373A43114F49
:100B4000B8420ED0104FB8420BD0B0F1804F08D051
:100B50000E4FB84205D00E4FB84202D00D4FB842EA
:100B600006D14DF6FF77394046F48057394305E00A
:100B700047F6FF57394044F4805739438283018454
:100B8000F0BD0000002C0140003401400004004092
:100B900000080040000C004010B50121880700F05B
:100BA0001FFAA8B31D4800F018FA1D49086008464E
:100BB00000681C490968401A1B4908601848006809
:100BC000184908601848006844F62061884207DD2B
:100BD00015480068A0F57F40FF38134908600AE017
:100BE000114800681149884205DA0F480068090C6D
:100BF00008440D4908600C480068FFF77DFB0C496C
:100C00000860084601680B48FFF7FEFC0A490860C7
:100C10000121880700F06BF810BD000000040040BF
:100C2000080000200400002000000020E0B1FFFFC9
:100C3000100000202C0000201400002070B50121BD
:100C4000184800F0CDF938B3174800681749086014
:100C5000084601681648FFF787FA06464FF08041BC
:100C6000FFF70CFB0546FFF750FB84B22146114805
:100C700000F0EFFA0D4801680D48FFF7C7FA064685
:100C80004FF08041FFF7FAFA0546FFF73EFB84B2CA
:100C90002146084800F0DFFA0121024800F027F859
:100CA00070BD000000080040140000200C0000206F
:100CB0000000FA44002C014021B1028842F0800279
:100CC000028004E002884FF67F731A40028070476A
:100CD00030B5002301248C40A3B2048C9C430484CF
:100CE000048C02FA01F5ADB22C43048430BDCA4332
:100CF0000282704721B1028842F00102028004E0C2
:100D000002884FF6FE731A400280704710B542F217
:100D10000F701C4988805320088000204880C880BC
:100D20004FF0804000F0C6FA40F2E7301549888065
:100D300053200880144800F0BDFA012211469007A4
:100D400000F0BFF9012211460F4800F0BAF9012165
:100D50008807FFF7CFFF01210B48FFF7CBFF0B48B8
:100D600000F026F80749094800F0A4FA4FF6FF7092
:100D70000449888000200880C8804880034800F02B
:100D800099FA10BD1800002000080040000400403F
:100D900031B1B0F8442042F40042A0F8442005E00C
:100DA000B0F84420C2F30E02A0F8442070470000BF
:100DB00010B504466848844208D10121C014FFF7E9
:100DC000FDFC0021E014FFF7F9FCC4E0B4F1804F12
:100DD00008D101210846FFF7D1FC00210120FFF7CF
:100DE000CDFCB8E05D48844208D101210220FFF724
:100DF000C5FC00210220FFF7C1FCACE0584884424A
:100E000008D101210420FFF7B9FC00210420FFF7DD
:100E1000B5FCA0E05348844208D101210820FFF727
:100E2000ADFC00210820FFF7A9FC94E04E48844265
:100E300008D101211020FFF7A1FC00211020FFF7AD
:100E40009DFC88E04948844208D101212020FFF719
:100E500095FC00212020FFF791FC7CE0444884426F
:100E600008D101214014FFF7A9FC00216014FFF70D
:100E7000A5FC70E03F48844209D10121C804FFF776
:100E80009DFC00214FF40020FFF798FC63E03A48F6
:100E9000844209D101210805FFF790FC00214FF49D
:100EA0008010FFF78BFC56E03448844209D10121C1
:100EB0004805FFF783FC00214FF40010FFF77EFC8C
:100EC00049E02F48844208D101214020FFF756FC19
:100ED00000214020FFF752FC3DE02A48844208D11F
:100EE00001218020FFF74AFC00218020FFF746FC0B
:100EF00031E02548844208D101218015FFF73EFCEE
:100F00000021A015FFF73AFC25E02048844209D1D2
:100F100001210804FFF752FC00214FF48030FFF755
:100F20004DFC18E01A48844209D101214804FFF71A
:100F300045FC00214FF40030FFF740FC0BE0154862
:100F4000844208D101218804FFF738FC00214FF4C6
:100F50008020FFF733FC10BD002C0140000400404E
:100F600000080040000C0040001000400014004049
:100F700000340140004C0140005001400054014049
:100F800000180040001C00400020004000400140CC
:100F90000044014000480140F0B50C4615461E468D
:100FA0000021002200230189028B038C4FF6F87781
:100FB000394021434FF6FC473A4040F201173A438B
:100FC0004FF6DD773B404FF6FF7707EA06172F43D2
:100FD0003B43018102830384F0BD0146888C704746
:100FE00030B50246002000230024158A05EA0103DB
:100FF000958905EA010413B10CB1012000E000203D
:1010000030BD000070B505460C46244885420ED020
:10101000234885420BD0B5F1804F08D02148854246
:1010200005D02148854202D02048854200D100E009
:1010300000BF208850B92389A28861882846FFF71D
:101040008BFCE188284600F008F925E02088042878
:101050000AD12389A28861882846FFF7BDFCE18870
:10106000284600F003F917E0208808280AD12389D0
:10107000A28861882846FFF7FBFCE188284600F03B
:1010800002F909E02389A28861882846FFF738FD24
:10109000E188284600F000F970BD0000002C0140F6
:1010A000003401400004004000080040000C0040F3
:1010B000002101804180012181800021C1800181C6
:1010C00070471AB183890B43838102E083898B4384
:1010D0008381704770B5002400220023058C4FF6F1
:1010E000FE7635400584028C8388048B4FF68F751D
:1010F0002C40B51E2C400D882C43751E2A400D89AE
:101100002A434D882A43144DA8420BD0134DA842C0
:1011100008D0134DA84205D0124DA84202D0124D5E
:10112000A84213D14FF6F7752A404D892A434FF64E
:10113000FB752A408D882A434FF6FF652B404FF6FA
:10114000FF552B408D892B43CD892B43838004830E
:10115000CD888586028470BD002C0140003401409A
:101160000040014000440140004801400A4600217F
:10117000018B4FF6F773194011430183704700004C
:1011800070B5002400220023058C4FF6EF76354021
:101190000584028C8388048B48F6FF752C404FF63B
:1011A000FF452C400D884FF6FF7606EA05252C43B7
:1011B0004FF6DF752A400D8906EA05152A434D884A
:1011C00006EA05152A43154DA84202D0144DA8423F
:1011D0001DD14FF67F752A404D894FF6FF7606EAFE
:1011E00005152A434FF6BF752A408D8806EA051576
:1011F0002A434FF6FF352B404FF2FF752B408D8968
:1012000006EA85052B43CD8906EA85052B438380B5
:101210000483CD880587028470BD0000002C014046
:10122000003401400A460021018B4FF2FF73194040
:101230004FF6FF7303EA022319430183704700212D
:10124000018041808180C180018141818181C18192
:1012500070478186704701877047028B4FF6F373A2
:101260001A400283028B0A4302837047028B4FF2BB
:10127000FF331A400283028B4FF6FF7303EA012308
:101280001A4302837047828B4FF6F3731A408283AE
:10129000828B0A4382837047828B4FF2FF331A405E
:1012A0008283828B4FF6FF7303EA01231A43828302
:1012B00070470000002202881D4B98420ED01D4B43
:1012C00098420BD0B0F1804F08D01B4B984205D00C
:1012D0001A4B984202D01A4B984204D14FF68F73A2
:1012E0001A404B881A43174B984207D0164B984226
:1012F00004D04FF6FF431A40CB881A4302808B88F4
:1013000083850B8803850A4B98420BD0094B984282
:1013100008D00E4B984205D00D4B984202D00D4B91
:10132000984201D10B7A0386012383827047000023
:10133000002C01400034014000040040000800403F
:10134000000C00400010004000140040004001402C
:1013500000440140004801404FF6FF7181800021A8
:101360000180C18041800172704700BFFEE702E04A
:1013700008C8121F08C1002AFAD170477047002020
:1013800001E001C1121F002AFBD17047FFF726FAC6
:10139000FFF728F8FFF790F9FFF7B8FC4FF4E0608B
:1013A000FFF728F9FFF7C0F800231A4603210B487E
:1013B000FFF7F2FD0A48FFF77BFE09490748FFF7F0
:1013C00021FE002005492431088001210348FFF750
:1013D00091FC0448FFF75CF900BFFEE70004004001
:1013E000220000202C00002008140008000000202B
:1013F000180000006E1300082014000818000020D8
:10140000400400007E1300080000000000000000FF
:101410000000000000007A4400000000000000000E
:0400000508000131BD
:00000001FF
